{
  "_format": "hh-sol-artifact-1",
  "contractName": "RandomNumberGenerator",
  "sourceName": "contracts/RandomNumberGenerator.sol",
  "abi": [
    {
      "inputs": [
        {
          "internalType": "bytes32",
          "name": "_keyHash",
          "type": "bytes32"
        },
        {
          "internalType": "uint256",
          "name": "_fee",
          "type": "uint256"
        }
      ],
      "stateMutability": "nonpayable",
      "type": "constructor"
    },
    {
      "inputs": [
        {
          "internalType": "bytes32",
          "name": "requestId",
          "type": "bytes32"
        },
        {
          "internalType": "uint256",
          "name": "randomness",
          "type": "uint256"
        }
      ],
      "name": "rawFulfillRandomness",
      "outputs": [],
      "stateMutability": "nonpayable",
      "type": "function"
    },
    {
      "inputs": [],
      "name": "request",
      "outputs": [
        {
          "internalType": "bytes32",
          "name": "requestId",
          "type": "bytes32"
        }
      ],
      "stateMutability": "nonpayable",
      "type": "function"
    }
  ],
  "bytecode": "0x60c060405234801561001057600080fd5b50604051610abb380380610abb8339818101604052810190610032919061010b565b73b3dccb4cf7a26f6cf6b120cf5a73875b7bbc655b7301be23585060835e02b77ef475b0cc51aa1e07098173ffffffffffffffffffffffffffffffffffffffff1660a08173ffffffffffffffffffffffffffffffffffffffff1660601b815250508073ffffffffffffffffffffffffffffffffffffffff1660808173ffffffffffffffffffffffffffffffffffffffff1660601b81525050505081600281905550806003819055505050610192565b6000815190506100f081610164565b92915050565b6000815190506101058161017b565b92915050565b600080604083850312156101225761012161015f565b5b6000610130858286016100e1565b9250506020610141858286016100f6565b9150509250929050565b6000819050919050565b6000819050919050565b600080fd5b61016d8161014b565b811461017857600080fd5b50565b61018481610155565b811461018f57600080fd5b50565b60805160601c60a05160601c6108f76101c46000396000818161011501526101ef015260006101b301526108f76000f3fe608060405234801561001057600080fd5b50600436106100365760003560e01c8063338cdca11461003b57806394985ddd14610059575b600080fd5b610043610075565b6040516100509190610600565b60405180910390f35b610073600480360381019061006e919061047c565b610113565b005b60008060001b60025414156100bf576040517f08c379a00000000000000000000000000000000000000000000000000000000081526004016100b690610689565b60405180910390fd5b33600160006101000a81548173ffffffffffffffffffffffffffffffffffffffff021916908373ffffffffffffffffffffffffffffffffffffffff16021790555061010e6002546003546101af565b905090565b7f000000000000000000000000000000000000000000000000000000000000000073ffffffffffffffffffffffffffffffffffffffff163373ffffffffffffffffffffffffffffffffffffffff16146101a1576040517f08c379a0000000000000000000000000000000000000000000000000000000008152600401610198906106a9565b60405180910390fd5b6101ab828261030e565b5050565b60007f000000000000000000000000000000000000000000000000000000000000000073ffffffffffffffffffffffffffffffffffffffff16634000aea07f00000000000000000000000000000000000000000000000000000000000000008486600060405160200161022392919061061b565b6040516020818303038152906040526040518463ffffffff1660e01b8152600401610250939291906105c2565b602060405180830381600087803b15801561026a57600080fd5b505af115801561027e573d6000803e3d6000fd5b505050506040513d601f19601f820116820180604052508101906102a2919061044f565b5060006102c484600030600080898152602001908152602001600020546103a1565b90506001600080868152602001908152602001600020546102e591906106f6565b6000808681526020019081526020016000208190555061030584826103dd565b91505092915050565b600160009054906101000a900473ffffffffffffffffffffffffffffffffffffffff1673ffffffffffffffffffffffffffffffffffffffff1663e25646c183836040518363ffffffff1660e01b815260040161036b92919061061b565b600060405180830381600087803b15801561038557600080fd5b505af1158015610399573d6000803e3d6000fd5b505050505050565b6000848484846040516020016103ba9493929190610644565b6040516020818303038152906040528051906020012060001c9050949350505050565b600082826040516020016103f2929190610596565b60405160208183030381529060405280519060200120905092915050565b60008151905061041f8161087c565b92915050565b60008135905061043481610893565b92915050565b600081359050610449816108aa565b92915050565b60006020828403121561046557610464610814565b5b600061047384828501610410565b91505092915050565b6000806040838503121561049357610492610814565b5b60006104a185828601610425565b92505060206104b28582860161043a565b9150509250929050565b6104c58161074c565b82525050565b6104d48161076a565b82525050565b6104eb6104e68261076a565b6107d1565b82525050565b60006104fc826106c9565b61050681856106d4565b935061051681856020860161079e565b61051f81610819565b840191505092915050565b60006105376018836106e5565b91506105428261082a565b602082019050919050565b600061055a601f836106e5565b915061056582610853565b602082019050919050565b61057981610794565b82525050565b61059061058b82610794565b6107db565b82525050565b60006105a282856104da565b6020820191506105b2828461057f565b6020820191508190509392505050565b60006060820190506105d760008301866104bc565b6105e46020830185610570565b81810360408301526105f681846104f1565b9050949350505050565b600060208201905061061560008301846104cb565b92915050565b600060408201905061063060008301856104cb565b61063d6020830184610570565b9392505050565b600060808201905061065960008301876104cb565b6106666020830186610570565b61067360408301856104bc565b6106806060830184610570565b95945050505050565b600060208201905081810360008301526106a28161052a565b9050919050565b600060208201905081810360008301526106c28161054d565b9050919050565b600081519050919050565b600082825260208201905092915050565b600082825260208201905092915050565b600061070182610794565b915061070c83610794565b9250827fffffffffffffffffffffffffffffffffffffffffffffffffffffffffffffffff03821115610741576107406107e5565b5b828201905092915050565b600061075782610774565b9050919050565b60008115159050919050565b6000819050919050565b600073ffffffffffffffffffffffffffffffffffffffff82169050919050565b6000819050919050565b60005b838110156107bc5780820151818401526020810190506107a1565b838111156107cb576000848401525b50505050565b6000819050919050565b6000819050919050565b7f4e487b7100000000000000000000000000000000000000000000000000000000600052601160045260246000fd5b600080fd5b6000601f19601f8301169050919050565b7f4d75737420686176652076616c6964206b657920686173680000000000000000600082015250565b7f4f6e6c7920565246436f6f7264696e61746f722063616e2066756c66696c6c00600082015250565b6108858161075e565b811461089057600080fd5b50565b61089c8161076a565b81146108a757600080fd5b50565b6108b381610794565b81146108be57600080fd5b5056fea26469706673582212205f02456dc4df0b0773ae5a812ade3386a99f6e2391b3f172c7a1d371bbbbfc6264736f6c63430008060033",
  "linkReferences": {},
  "deployedLinkReferences": {}
}