{
  "_format": "hh-sol-artifact-1",
  "contractName": "RandomNumberGenerator",
  "sourceName": "contracts/RandomNumberGenerator.sol",
  "abi": [
    {
      "inputs": [],
      "stateMutability": "nonpayable",
      "type": "constructor"
    },
    {
      "inputs": [
        {
          "internalType": "bytes32",
          "name": "requestId",
          "type": "bytes32"
        },
        {
          "internalType": "uint256",
          "name": "randomness",
          "type": "uint256"
        }
      ],
      "name": "rawFulfillRandomness",
      "outputs": [],
      "stateMutability": "nonpayable",
      "type": "function"
    },
    {
      "inputs": [],
      "name": "request",
      "outputs": [
        {
          "internalType": "bytes32",
          "name": "requestId",
          "type": "bytes32"
        }
      ],
      "stateMutability": "nonpayable",
      "type": "function"
    }
  ],
  "bytecode": "0x60c060405234801561001057600080fd5b507fb3dccb4cf7a26f6cf6b120cf5a73875b7bbc655b00000000000000000000000060a0527f01be23585060835e02b77ef475b0cc51aa1e07090000000000000000000000006080527f2ed0feb3e7fd2022120aa84fab1945545a9f2ffc9076fd6156fa96eaff4c131160025567016345785d8a00006003557301be23585060835e02b77ef475b0cc51aa1e070973b3dccb4cf7a26f6cf6b120cf5a73875b7bbc655b6104736100d86000396000818160f301526101a10152600061017201526104736000f3fe608060405234801561001057600080fd5b50600436106100365760003560e01c8063338cdca11461003b57806394985ddd14610055575b600080fd5b61004361006a565b60405190815260200160405180910390f35b610068610063366004610389565b6100e8565b005b6002546000906100c15760405162461bcd60e51b815260206004820152601860248201527f4d75737420686176652076616c6964206b65792068617368000000000000000060448201526064015b60405180910390fd5b600180546001600160a01b031916331790556002546003546100e3919061016e565b905090565b336001600160a01b037f000000000000000000000000000000000000000000000000000000000000000016146101605760405162461bcd60e51b815260206004820152601f60248201527f4f6e6c7920565246436f6f7264696e61746f722063616e2066756c66696c6c0060448201526064016100b8565b61016a82826102f7565b5050565b60007f00000000000000000000000000000000000000000000000000000000000000006001600160a01b0316634000aea07f0000000000000000000000000000000000000000000000000000000000000000848660006040516020016101de929190918252602082015260400190565b6040516020818303038152906040526040518463ffffffff1660e01b815260040161020b939291906103ab565b602060405180830381600087803b15801561022557600080fd5b505af1158015610239573d6000803e3d6000fd5b505050506040513d601f19601f8201168201806040525081019061025d9190610360565b5060008381526020818152604080832054815180840188905280830185905230606082015260808082018390528351808303909101815260a0909101909252815191830191909120868452929091526102b7906001610417565b6000858152602081815260409182902092909255805180830187905280820184905281518082038301815260609091019091528051910120949350505050565b60015460405163e25646c160e01b815260048101849052602481018390526001600160a01b039091169063e25646c190604401600060405180830381600087803b15801561034457600080fd5b505af1158015610358573d6000803e3d6000fd5b505050505050565b60006020828403121561037257600080fd5b8151801515811461038257600080fd5b9392505050565b6000806040838503121561039c57600080fd5b50508035926020909101359150565b60018060a01b038416815260006020848184015260606040840152835180606085015260005b818110156103ed578581018301518582016080015282016103d1565b818111156103ff576000608083870101525b50601f01601f19169290920160800195945050505050565b6000821982111561043857634e487b7160e01b600052601160045260246000fd5b50019056fea2646970667358221220f936ac8df02890b6b913d7bebbc58d64df498646e4b0b918a264e5954960eed064736f6c63430008060033",
  "linkReferences": {},
  "deployedLinkReferences": {}
}