{
  "_format": "hh-sol-artifact-1",
  "contractName": "Lottery",
  "sourceName": "contracts/Lottery.sol",
  "abi": [
    {
      "inputs": [
        {
          "internalType": "uint256",
          "name": "_entryFee",
          "type": "uint256"
        },
        {
          "internalType": "uint256",
          "name": "_ownerCut",
          "type": "uint256"
        },
        {
          "internalType": "address",
          "name": "_randomNumberGenerator",
          "type": "address"
        }
      ],
      "stateMutability": "nonpayable",
      "type": "constructor"
    },
    {
      "anonymous": false,
      "inputs": [
        {
          "indexed": false,
          "internalType": "enum Lottery.LotteryState",
          "name": "newState",
          "type": "uint8"
        }
      ],
      "name": "LotteryStateChanged",
      "type": "event"
    },
    {
      "anonymous": false,
      "inputs": [
        {
          "indexed": false,
          "internalType": "address",
          "name": "player",
          "type": "address"
        },
        {
          "indexed": false,
          "internalType": "uint256",
          "name": "number",
          "type": "uint256"
        }
      ],
      "name": "NewEntry",
      "type": "event"
    },
    {
      "anonymous": false,
      "inputs": [
        {
          "indexed": false,
          "internalType": "bytes32",
          "name": "requestId",
          "type": "bytes32"
        },
        {
          "indexed": false,
          "internalType": "uint256",
          "name": "winningNumber",
          "type": "uint256"
        }
      ],
      "name": "NumberDrawn",
      "type": "event"
    },
    {
      "anonymous": false,
      "inputs": [
        {
          "indexed": false,
          "internalType": "bytes32",
          "name": "requestId",
          "type": "bytes32"
        }
      ],
      "name": "NumberRequested",
      "type": "event"
    },
    {
      "anonymous": false,
      "inputs": [
        {
          "indexed": true,
          "internalType": "address",
          "name": "previousOwner",
          "type": "address"
        },
        {
          "indexed": true,
          "internalType": "address",
          "name": "newOwner",
          "type": "address"
        }
      ],
      "name": "OwnershipTransferred",
      "type": "event"
    },
    {
      "inputs": [],
      "name": "drawNumber",
      "outputs": [],
      "stateMutability": "nonpayable",
      "type": "function"
    },
    {
      "inputs": [],
      "name": "entryFee",
      "outputs": [
        {
          "internalType": "uint256",
          "name": "",
          "type": "uint256"
        }
      ],
      "stateMutability": "view",
      "type": "function"
    },
    {
      "inputs": [
        {
          "internalType": "bytes32",
          "name": "_randomNumberRequestId",
          "type": "bytes32"
        },
        {
          "internalType": "uint256",
          "name": "_randomNumber",
          "type": "uint256"
        }
      ],
      "name": "numberDrawn",
      "outputs": [],
      "stateMutability": "nonpayable",
      "type": "function"
    },
    {
      "inputs": [],
      "name": "numberOfEntries",
      "outputs": [
        {
          "internalType": "uint256",
          "name": "",
          "type": "uint256"
        }
      ],
      "stateMutability": "view",
      "type": "function"
    },
    {
      "inputs": [
        {
          "internalType": "uint256",
          "name": "",
          "type": "uint256"
        }
      ],
      "name": "numbers",
      "outputs": [
        {
          "internalType": "uint256",
          "name": "",
          "type": "uint256"
        }
      ],
      "stateMutability": "view",
      "type": "function"
    },
    {
      "inputs": [],
      "name": "owner",
      "outputs": [
        {
          "internalType": "address",
          "name": "",
          "type": "address"
        }
      ],
      "stateMutability": "view",
      "type": "function"
    },
    {
      "inputs": [],
      "name": "ownerCut",
      "outputs": [
        {
          "internalType": "uint256",
          "name": "",
          "type": "uint256"
        }
      ],
      "stateMutability": "view",
      "type": "function"
    },
    {
      "inputs": [],
      "name": "randomNumberGenerator",
      "outputs": [
        {
          "internalType": "address",
          "name": "",
          "type": "address"
        }
      ],
      "stateMutability": "view",
      "type": "function"
    },
    {
      "inputs": [],
      "name": "randomNumberRequestId",
      "outputs": [
        {
          "internalType": "bytes32",
          "name": "",
          "type": "bytes32"
        }
      ],
      "stateMutability": "view",
      "type": "function"
    },
    {
      "inputs": [],
      "name": "renounceOwnership",
      "outputs": [],
      "stateMutability": "nonpayable",
      "type": "function"
    },
    {
      "inputs": [],
      "name": "rollover",
      "outputs": [],
      "stateMutability": "nonpayable",
      "type": "function"
    },
    {
      "inputs": [],
      "name": "state",
      "outputs": [
        {
          "internalType": "enum Lottery.LotteryState",
          "name": "",
          "type": "uint8"
        }
      ],
      "stateMutability": "view",
      "type": "function"
    },
    {
      "inputs": [
        {
          "internalType": "uint256",
          "name": "_number",
          "type": "uint256"
        }
      ],
      "name": "submitNumber",
      "outputs": [],
      "stateMutability": "payable",
      "type": "function"
    },
    {
      "inputs": [
        {
          "internalType": "address",
          "name": "newOwner",
          "type": "address"
        }
      ],
      "name": "transferOwnership",
      "outputs": [],
      "stateMutability": "nonpayable",
      "type": "function"
    },
    {
      "inputs": [],
      "name": "winningNumber",
      "outputs": [
        {
          "internalType": "uint256",
          "name": "",
          "type": "uint256"
        }
      ],
      "stateMutability": "view",
      "type": "function"
    }
  ],
  "bytecode": "0x60806040523480156200001157600080fd5b5060405162000f7438038062000f748339810160408190526200003491620002c2565b6200003f3362000201565b60008311620000955760405162461bcd60e51b815260206004820181905260248201527f456e74727920666565206d7573742062652067726561746572207468616e203060448201526064015b60405180910390fd5b828210620000f75760405162461bcd60e51b815260206004820152602860248201527f456e74727920666565206d7573742062652067726561746572207468616e206f6044820152671ddb995c8818dd5d60c21b60648201526084016200008c565b6001600160a01b038116620001545760405162461bcd60e51b815260206004820152602d602482015260008051602062000f5483398151915260448201526c76616c6964206164647265737360981b60648201526084016200008c565b62000173816001600160a01b03166200025160201b620008541760201c565b620001c75760405162461bcd60e51b815260206004820152602e602482015260008051602062000f5483398151915260448201526d1cdb585c9d0818dbdb9d1c9858dd60921b60648201526084016200008c565b60058390556006829055600880546001600160a01b0319166001600160a01b038316179055620001f8600062000257565b50505062000349565b600080546001600160a01b038381166001600160a01b0319831681178455604051919092169283917f8be0079c531659141344cd1fd0a4f28419497f9722a3daafe3b4186f6b6457e09190a35050565b3b151590565b6003805482919060ff1916600183600281111562000279576200027962000333565b02179055506003546040517f1e046fdd2110d82ed3fa7652b41ced17c49cbb9ee4536e65f51ad2a6ed5359a791620002b79160ff909116906200030a565b60405180910390a150565b600080600060608486031215620002d857600080fd5b83516020850151604086015191945092506001600160a01b0381168114620002ff57600080fd5b809150509250925092565b60208101600383106200032d57634e487b7160e01b600052602160045260246000fd5b91905290565b634e487b7160e01b600052602160045260246000fd5b610bfb80620003596000396000f3fe6080604052600436106100e85760003560e01c806383b5ff8b1161008a578063d39fa23311610059578063d39fa2331461022a578063d80ffb201461024a578063e25646c11461025f578063f2fde38b1461027f57600080fd5b806383b5ff8b146101ba5780638da5cb5b146101d0578063b056b49a146101ee578063c19d93fb1461020357600080fd5b80634fcb4de2116100c65780634fcb4de2146101645780635b6b62e214610179578063715018a61461018f578063825f7872146101a457600080fd5b8063072ea61c146100ed5780633bedaca2146101165780634664611e1461014e575b600080fd5b3480156100f957600080fd5b5061010360055481565b6040519081526020015b60405180910390f35b34801561012257600080fd5b50600854610136906001600160a01b031681565b6040516001600160a01b03909116815260200161010d565b34801561015a57600080fd5b5061010360075481565b610177610172366004610aa1565b61029f565b005b34801561018557600080fd5b5061010360095481565b34801561019b57600080fd5b506101776104d3565b3480156101b057600080fd5b5061010360045481565b3480156101c657600080fd5b5061010360065481565b3480156101dc57600080fd5b506000546001600160a01b0316610136565b3480156101fa57600080fd5b50610177610509565b34801561020f57600080fd5b5060035461021d9060ff1681565b60405161010d9190610aba565b34801561023657600080fd5b50610103610245366004610aa1565b61056d565b34801561025657600080fd5b5061017761058e565b34801561026b57600080fd5b5061017761027a366004610a7f565b6106bd565b34801561028b57600080fd5b5061017761029a366004610a36565b6107bc565b60008060035460ff1660028111156102b9576102b9610b99565b146102df5760405162461bcd60e51b81526004016102d690610ae2565b60405180910390fd5b6005543410156103315760405162461bcd60e51b815260206004820152601a60248201527f4d696e696d756d20656e7472792066656520726571756972656400000000000060448201526064016102d6565b6000828152600160205260409020610349903361085a565b6103aa5760405162461bcd60e51b815260206004820152602c60248201527f43616e6e6f74207375626d6974207468652073616d65206e756d626572206d6f60448201526b7265207468616e206f6e636560a01b60648201526084016102d6565b6002805460018101825560009182527f405787fa12a823e0f2b7631cc41b3ba8828b3321ca811111fa75cd3aa3bb5ace0183905560048054916103ec83610b70565b9091555050600080546006546040516001600160a01b03909216918381818185875af1925050503d806000811461043f576040519150601f19603f3d011682016040523d82523d6000602084013e610444565b606091505b50509050806104955760405162461bcd60e51b815260206004820152601c60248201527f5472616e73666572206f66204f776e657220637574206661696c65640000000060448201526064016102d6565b60408051338152602081018590527f9d5cf8d6fc62210bab9630b8d613c1b63d9cfe0e0d2d70dda538d69c7e4f37ba910160405180910390a1505050565b6000546001600160a01b031633146104fd5760405162461bcd60e51b81526004016102d690610b19565b6105076000610878565b565b6000546001600160a01b031633146105335760405162461bcd60e51b81526004016102d690610b19565b60028060035460ff16600281111561054d5761054d610b99565b1461056a5760405162461bcd60e51b81526004016102d690610ae2565b50565b6002818154811061057d57600080fd5b600091825260209091200154905081565b6000546001600160a01b031633146105b85760405162461bcd60e51b81526004016102d690610b19565b60008060035460ff1660028111156105d2576105d2610b99565b146105ef5760405162461bcd60e51b81526004016102d690610ae2565b6105f960016108c8565b600860009054906101000a90046001600160a01b03166001600160a01b031663338cdca16040518163ffffffff1660e01b8152600401602060405180830381600087803b15801561064957600080fd5b505af115801561065d573d6000803e3d6000fd5b505050506040513d601f19601f820116820180604052508101906106819190610a66565b60098190556040519081527f5a5d14427c2488a60760f14f907ab5bbf62fd986514a879b6556f8f581a41cf9906020015b60405180910390a150565b6008546001600160a01b031633146107175760405162461bcd60e51b815260206004820152601960248201527f4d75737420626520636f72726563742067656e6572617465720000000000000060448201526064016102d6565b60018060035460ff16600281111561073157610731610b99565b1461074e5760405162461bcd60e51b81526004016102d690610ae2565b6009548314156107b757600782905560408051848152602081018490527f967542d653a158351037543eeadf2ee84d58486f3f4d44aac8d794b51329e784910160405180910390a160008281526001602052604090206107ad90610923565b6107b760026108c8565b505050565b6000546001600160a01b031633146107e65760405162461bcd60e51b81526004016102d690610b19565b6001600160a01b03811661084b5760405162461bcd60e51b815260206004820152602660248201527f4f776e61626c653a206e6577206f776e657220697320746865207a65726f206160448201526564647265737360d01b60648201526084016102d6565b61056a81610878565b3b151590565b600061086f836001600160a01b03841661099b565b90505b92915050565b600080546001600160a01b038381166001600160a01b0319831681178455604051919092169283917f8be0079c531659141344cd1fd0a4f28419497f9722a3daafe3b4186f6b6457e09190a35050565b6003805482919060ff191660018360028111156108e7576108e7610b99565b02179055506003546040517f1e046fdd2110d82ed3fa7652b41ced17c49cbb9ee4536e65f51ad2a6ed5359a7916106b29160ff90911690610aba565b4760005b610930836109ea565b8110156107b75761094183826109f4565b6001600160a01b03166108fc610960610959866109ea565b8590610a00565b6040518115909202916000818181858888f19350505050158015610988573d6000803e3d6000fd5b508061099381610b70565b915050610927565b60008181526001830160205260408120546109e257508154600181810184556000848152602080822090930184905584548482528286019093526040902091909155610872565b506000610872565b6000610872825490565b600061086f8383610a0c565b600061086f8284610b4e565b6000826000018281548110610a2357610a23610baf565b9060005260206000200154905092915050565b600060208284031215610a4857600080fd5b81356001600160a01b0381168114610a5f57600080fd5b9392505050565b600060208284031215610a7857600080fd5b5051919050565b60008060408385031215610a9257600080fd5b50508035926020909101359150565b600060208284031215610ab357600080fd5b5035919050565b6020810160038310610adc57634e487b7160e01b600052602160045260246000fd5b91905290565b6020808252601b908201527f57726f6e6720737461746520666f72207468697320616374696f6e0000000000604082015260600190565b6020808252818101527f4f776e61626c653a2063616c6c6572206973206e6f7420746865206f776e6572604082015260600190565b600082610b6b57634e487b7160e01b600052601260045260246000fd5b500490565b6000600019821415610b9257634e487b7160e01b600052601160045260246000fd5b5060010190565b634e487b7160e01b600052602160045260246000fd5b634e487b7160e01b600052603260045260246000fdfea26469706673582212204e605e938c594cd956fa8d1ec51fcb31bc5edb24276a89e005260b7a652de5cc64736f6c6343000806003352616e646f6d206e756d6265722067656e657261746f72206d75737420626520",
  "linkReferences": {},
  "deployedLinkReferences": {}
}