{
  "_format": "hh-sol-artifact-1",
  "contractName": "Lottery",
  "sourceName": "contracts/Lottery.sol",
  "abi": [
    {
      "inputs": [
        {
          "internalType": "uint256",
          "name": "_entryFee",
          "type": "uint256"
        },
        {
          "internalType": "uint256",
          "name": "_ownerCut",
          "type": "uint256"
        },
        {
          "internalType": "address",
          "name": "_randomNumberGenerator",
          "type": "address"
        }
      ],
      "stateMutability": "nonpayable",
      "type": "constructor"
    },
    {
      "anonymous": false,
      "inputs": [
        {
          "indexed": false,
          "internalType": "enum Lottery.LotteryState",
          "name": "newState",
          "type": "uint8"
        }
      ],
      "name": "LotteryStateChanged",
      "type": "event"
    },
    {
      "anonymous": false,
      "inputs": [
        {
          "indexed": false,
          "internalType": "address",
          "name": "player",
          "type": "address"
        },
        {
          "indexed": false,
          "internalType": "uint256",
          "name": "number",
          "type": "uint256"
        }
      ],
      "name": "NewEntry",
      "type": "event"
    },
    {
      "anonymous": false,
      "inputs": [
        {
          "indexed": false,
          "internalType": "bytes32",
          "name": "requestId",
          "type": "bytes32"
        },
        {
          "indexed": false,
          "internalType": "uint256",
          "name": "winningNumber",
          "type": "uint256"
        }
      ],
      "name": "NumberDrawn",
      "type": "event"
    },
    {
      "anonymous": false,
      "inputs": [
        {
          "indexed": false,
          "internalType": "bytes32",
          "name": "requestId",
          "type": "bytes32"
        }
      ],
      "name": "NumberRequested",
      "type": "event"
    },
    {
      "anonymous": false,
      "inputs": [
        {
          "indexed": true,
          "internalType": "address",
          "name": "previousOwner",
          "type": "address"
        },
        {
          "indexed": true,
          "internalType": "address",
          "name": "newOwner",
          "type": "address"
        }
      ],
      "name": "OwnershipTransferred",
      "type": "event"
    },
    {
      "inputs": [],
      "name": "drawNumber",
      "outputs": [],
      "stateMutability": "nonpayable",
      "type": "function"
    },
    {
      "inputs": [],
      "name": "entryFee",
      "outputs": [
        {
          "internalType": "uint256",
          "name": "",
          "type": "uint256"
        }
      ],
      "stateMutability": "view",
      "type": "function"
    },
    {
      "inputs": [
        {
          "internalType": "bytes32",
          "name": "_randomNumberRequestId",
          "type": "bytes32"
        },
        {
          "internalType": "uint256",
          "name": "_randomNumber",
          "type": "uint256"
        }
      ],
      "name": "numberDrawn",
      "outputs": [],
      "stateMutability": "nonpayable",
      "type": "function"
    },
    {
      "inputs": [],
      "name": "numberOfEntries",
      "outputs": [
        {
          "internalType": "uint256",
          "name": "",
          "type": "uint256"
        }
      ],
      "stateMutability": "view",
      "type": "function"
    },
    {
      "inputs": [],
      "name": "owner",
      "outputs": [
        {
          "internalType": "address",
          "name": "",
          "type": "address"
        }
      ],
      "stateMutability": "view",
      "type": "function"
    },
    {
      "inputs": [],
      "name": "ownerCut",
      "outputs": [
        {
          "internalType": "uint256",
          "name": "",
          "type": "uint256"
        }
      ],
      "stateMutability": "view",
      "type": "function"
    },
    {
      "inputs": [],
      "name": "renounceOwnership",
      "outputs": [],
      "stateMutability": "nonpayable",
      "type": "function"
    },
    {
      "inputs": [],
      "name": "rollover",
      "outputs": [],
      "stateMutability": "nonpayable",
      "type": "function"
    },
    {
      "inputs": [],
      "name": "state",
      "outputs": [
        {
          "internalType": "enum Lottery.LotteryState",
          "name": "",
          "type": "uint8"
        }
      ],
      "stateMutability": "view",
      "type": "function"
    },
    {
      "inputs": [
        {
          "internalType": "uint256",
          "name": "_number",
          "type": "uint256"
        }
      ],
      "name": "submitNumber",
      "outputs": [],
      "stateMutability": "payable",
      "type": "function"
    },
    {
      "inputs": [
        {
          "internalType": "address",
          "name": "newOwner",
          "type": "address"
        }
      ],
      "name": "transferOwnership",
      "outputs": [],
      "stateMutability": "nonpayable",
      "type": "function"
    },
    {
      "inputs": [],
      "name": "winningNumber",
      "outputs": [
        {
          "internalType": "uint256",
          "name": "",
          "type": "uint256"
        }
      ],
      "stateMutability": "view",
      "type": "function"
    }
  ],
  "bytecode": "0x60806040523480156200001157600080fd5b5060405162001d7338038062001d738339818101604052810190620000379190620003b2565b620000576200004b6200022d60201b60201c565b6200023560201b60201c565b600083116200009d576040517f08c379a000000000000000000000000000000000000000000000000000000000815260040162000094906200053e565b60405180910390fd5b828210620000e2576040517f08c379a0000000000000000000000000000000000000000000000000000000008152600401620000d990620004d8565b60405180910390fd5b600073ffffffffffffffffffffffffffffffffffffffff168173ffffffffffffffffffffffffffffffffffffffff16141562000155576040517f08c379a00000000000000000000000000000000000000000000000000000000081526004016200014c90620004fa565b60405180910390fd5b620001818173ffffffffffffffffffffffffffffffffffffffff16620002f960201b62000adc1760201c565b620001c3576040517f08c379a0000000000000000000000000000000000000000000000000000000008152600401620001ba906200051c565b60405180910390fd5b826005819055508160068190555080600860006101000a81548173ffffffffffffffffffffffffffffffffffffffff021916908373ffffffffffffffffffffffffffffffffffffffff1602179055506200022460006200030c60201b60201c565b5050506200076d565b600033905090565b60008060009054906101000a900473ffffffffffffffffffffffffffffffffffffffff169050816000806101000a81548173ffffffffffffffffffffffffffffffffffffffff021916908373ffffffffffffffffffffffffffffffffffffffff1602179055508173ffffffffffffffffffffffffffffffffffffffff168173ffffffffffffffffffffffffffffffffffffffff167f8be0079c531659141344cd1fd0a4f28419497f9722a3daafe3b4186f6b6457e060405160405180910390a35050565b600080823b905060008111915050919050565b80600360006101000a81548160ff02191690836002811115620003345762000333620005d8565b5b02179055507f1e046fdd2110d82ed3fa7652b41ced17c49cbb9ee4536e65f51ad2a6ed5359a7600360009054906101000a900460ff16604051620003799190620004bb565b60405180910390a150565b600081519050620003958162000739565b92915050565b600081519050620003ac8162000753565b92915050565b600080600060608486031215620003ce57620003cd62000607565b5b6000620003de868287016200039b565b9350506020620003f1868287016200039b565b9250506040620004048682870162000384565b9150509250925092565b6200041981620005c4565b82525050565b60006200042e60288362000560565b91506200043b826200060c565b604082019050919050565b600062000455602d8362000560565b915062000462826200065b565b604082019050919050565b60006200047c602e8362000560565b91506200048982620006aa565b604082019050919050565b6000620004a360208362000560565b9150620004b082620006f9565b602082019050919050565b6000602082019050620004d260008301846200040e565b92915050565b60006020820190508181036000830152620004f3816200041f565b9050919050565b60006020820190508181036000830152620005158162000446565b9050919050565b6000602082019050818103600083015262000537816200046d565b9050919050565b60006020820190508181036000830152620005598162000494565b9050919050565b600082825260208201905092915050565b60006200057e826200059a565b9050919050565b6000819050620005958262000722565b919050565b600073ffffffffffffffffffffffffffffffffffffffff82169050919050565b6000819050919050565b6000620005d18262000585565b9050919050565b7f4e487b7100000000000000000000000000000000000000000000000000000000600052602160045260246000fd5b600080fd5b7f456e74727920666565206d7573742062652067726561746572207468616e206f60008201527f776e657220637574000000000000000000000000000000000000000000000000602082015250565b7f52616e646f6d206e756d6265722067656e657261746f72206d7573742062652060008201527f76616c6964206164647265737300000000000000000000000000000000000000602082015250565b7f52616e646f6d206e756d6265722067656e657261746f72206d7573742062652060008201527f736d61727420636f6e7472616374000000000000000000000000000000000000602082015250565b7f456e74727920666565206d7573742062652067726561746572207468616e2030600082015250565b60038110620007365762000735620005d8565b5b50565b620007448162000571565b81146200075057600080fd5b50565b6200075e81620005ba565b81146200076a57600080fd5b50565b6115f6806200077d6000396000f3fe6080604052600436106100a75760003560e01c80638da5cb5b116100645780638da5cb5b1461018b578063b056b49a146101b6578063c19d93fb146101cd578063d80ffb20146101f8578063e25646c11461020f578063f2fde38b14610238576100a7565b8063072ea61c146100ac5780634664611e146100d75780634fcb4de214610102578063715018a61461011e578063825f78721461013557806383b5ff8b14610160575b600080fd5b3480156100b857600080fd5b506100c1610261565b6040516100ce919061121c565b60405180910390f35b3480156100e357600080fd5b506100ec610267565b6040516100f9919061121c565b60405180910390f35b61011c60048036038101906101179190610f03565b61026d565b005b34801561012a57600080fd5b506101336104c1565b005b34801561014157600080fd5b5061014a610549565b604051610157919061121c565b60405180910390f35b34801561016c57600080fd5b5061017561054f565b604051610182919061121c565b60405180910390f35b34801561019757600080fd5b506101a0610555565b6040516101ad9190611099565b60405180910390f35b3480156101c257600080fd5b506101cb61057e565b005b3480156101d957600080fd5b506101e2610674565b6040516101ef9190611121565b60405180910390f35b34801561020457600080fd5b5061020d610687565b005b34801561021b57600080fd5b5061023660048036038101906102319190610ec3565b610868565b005b34801561024457600080fd5b5061025f600480360381019061025a9190610e69565b6109e4565b005b60055481565b60075481565b600080600281111561028257610281611396565b5b600360009054906101000a900460ff1660028111156102a4576102a3611396565b5b146102e4576040517f08c379a00000000000000000000000000000000000000000000000000000000081526004016102db906111bc565b60405180910390fd5b600554341015610329576040517f08c379a0000000000000000000000000000000000000000000000000000000008152600401610320906111fc565b60405180910390fd5b61034e3360016000858152602001908152602001600020610aef90919063ffffffff16565b61038d576040517f08c379a00000000000000000000000000000000000000000000000000000000081526004016103849061115c565b60405180910390fd5b6002829080600181540180825580915050600190039060005260206000200160009091909190915055600460008154809291906103c9906112ef565b919050555060006103d8610555565b73ffffffffffffffffffffffffffffffffffffffff166006546040516103fd90611084565b60006040518083038185875af1925050503d806000811461043a576040519150601f19603f3d011682016040523d82523d6000602084013e61043f565b606091505b5050905080610483576040517f08c379a000000000000000000000000000000000000000000000000000000000815260040161047a9061113c565b60405180910390fd5b7f9d5cf8d6fc62210bab9630b8d613c1b63d9cfe0e0d2d70dda538d69c7e4f37ba33846040516104b49291906110b4565b60405180910390a1505050565b6104c9610b1f565b73ffffffffffffffffffffffffffffffffffffffff166104e7610555565b73ffffffffffffffffffffffffffffffffffffffff161461053d576040517f08c379a0000000000000000000000000000000000000000000000000000000008152600401610534906111dc565b60405180910390fd5b6105476000610b27565b565b60045481565b60065481565b60008060009054906101000a900473ffffffffffffffffffffffffffffffffffffffff16905090565b610586610b1f565b73ffffffffffffffffffffffffffffffffffffffff166105a4610555565b73ffffffffffffffffffffffffffffffffffffffff16146105fa576040517f08c379a00000000000000000000000000000000000000000000000000000000081526004016105f1906111dc565b60405180910390fd5b600280600281111561060f5761060e611396565b5b600360009054906101000a900460ff16600281111561063157610630611396565b5b14610671576040517f08c379a0000000000000000000000000000000000000000000000000000000008152600401610668906111bc565b60405180910390fd5b50565b600360009054906101000a900460ff1681565b61068f610b1f565b73ffffffffffffffffffffffffffffffffffffffff166106ad610555565b73ffffffffffffffffffffffffffffffffffffffff1614610703576040517f08c379a00000000000000000000000000000000000000000000000000000000081526004016106fa906111dc565b60405180910390fd5b600080600281111561071857610717611396565b5b600360009054906101000a900460ff16600281111561073a57610739611396565b5b1461077a576040517f08c379a0000000000000000000000000000000000000000000000000000000008152600401610771906111bc565b60405180910390fd5b6107846001610beb565b600860009054906101000a900473ffffffffffffffffffffffffffffffffffffffff1673ffffffffffffffffffffffffffffffffffffffff1663338cdca16040518163ffffffff1660e01b8152600401602060405180830381600087803b1580156107ee57600080fd5b505af1158015610802573d6000803e3d6000fd5b505050506040513d601f19601f820116820180604052508101906108269190610e96565b6009819055507f5a5d14427c2488a60760f14f907ab5bbf62fd986514a879b6556f8f581a41cf960095460405161085d91906110dd565b60405180910390a150565b600860009054906101000a900473ffffffffffffffffffffffffffffffffffffffff1673ffffffffffffffffffffffffffffffffffffffff163373ffffffffffffffffffffffffffffffffffffffff16146108f8576040517f08c379a00000000000000000000000000000000000000000000000000000000081526004016108ef9061119c565b60405180910390fd5b600180600281111561090d5761090c611396565b5b600360009054906101000a900460ff16600281111561092f5761092e611396565b5b1461096f576040517f08c379a0000000000000000000000000000000000000000000000000000000008152600401610966906111bc565b60405180910390fd5b6009548314156109df57816007819055507f967542d653a158351037543eeadf2ee84d58486f3f4d44aac8d794b51329e78483836040516109b19291906110f8565b60405180910390a16109d460016000848152602001908152602001600020610c5e565b6109de6002610beb565b5b505050565b6109ec610b1f565b73ffffffffffffffffffffffffffffffffffffffff16610a0a610555565b73ffffffffffffffffffffffffffffffffffffffff1614610a60576040517f08c379a0000000000000000000000000000000000000000000000000000000008152600401610a57906111dc565b60405180910390fd5b600073ffffffffffffffffffffffffffffffffffffffff168173ffffffffffffffffffffffffffffffffffffffff161415610ad0576040517f08c379a0000000000000000000000000000000000000000000000000000000008152600401610ac79061117c565b60405180910390fd5b610ad981610b27565b50565b600080823b905060008111915050919050565b6000610b17836000018373ffffffffffffffffffffffffffffffffffffffff1660001b610d01565b905092915050565b600033905090565b60008060009054906101000a900473ffffffffffffffffffffffffffffffffffffffff169050816000806101000a81548173ffffffffffffffffffffffffffffffffffffffff021916908373ffffffffffffffffffffffffffffffffffffffff1602179055508173ffffffffffffffffffffffffffffffffffffffff168173ffffffffffffffffffffffffffffffffffffffff167f8be0079c531659141344cd1fd0a4f28419497f9722a3daafe3b4186f6b6457e060405160405180910390a35050565b80600360006101000a81548160ff02191690836002811115610c1057610c0f611396565b5b02179055507f1e046fdd2110d82ed3fa7652b41ced17c49cbb9ee4536e65f51ad2a6ed5359a7600360009054906101000a900460ff16604051610c539190611121565b60405180910390a150565b600047905060005b610c6f83610d71565b811015610cfc57610c898184610d8690919063ffffffff16565b73ffffffffffffffffffffffffffffffffffffffff166108fc610cbd610cae86610d71565b85610da090919063ffffffff16565b9081150290604051600060405180830381858888f19350505050158015610ce8573d6000803e3d6000fd5b508080610cf4906112ef565b915050610c66565b505050565b6000610d0d8383610db6565b610d66578260000182908060018154018082558091505060019003906000526020600020016000909190919091505582600001805490508360010160008481526020019081526020016000208190555060019050610d6b565b600090505b92915050565b6000610d7f82600001610dd9565b9050919050565b6000610d958360000183610dea565b60001c905092915050565b60008183610dae9190611253565b905092915050565b600080836001016000848152602001908152602001600020541415905092915050565b600081600001805490509050919050565b6000826000018281548110610e0257610e016113c5565b5b9060005260206000200154905092915050565b600081359050610e248161157b565b92915050565b600081359050610e3981611592565b92915050565b600081519050610e4e81611592565b92915050565b600081359050610e63816115a9565b92915050565b600060208284031215610e7f57610e7e6113f4565b5b6000610e8d84828501610e15565b91505092915050565b600060208284031215610eac57610eab6113f4565b5b6000610eba84828501610e3f565b91505092915050565b60008060408385031215610eda57610ed96113f4565b5b6000610ee885828601610e2a565b9250506020610ef985828601610e54565b9150509250929050565b600060208284031215610f1957610f186113f4565b5b6000610f2784828501610e54565b91505092915050565b610f3981611284565b82525050565b610f4881611296565b82525050565b610f57816112dd565b82525050565b6000610f6a601c83611242565b9150610f75826113f9565b602082019050919050565b6000610f8d602c83611242565b9150610f9882611422565b604082019050919050565b6000610fb0602683611242565b9150610fbb82611471565b604082019050919050565b6000610fd3601983611242565b9150610fde826114c0565b602082019050919050565b6000610ff6601b83611242565b9150611001826114e9565b602082019050919050565b6000611019602083611242565b915061102482611512565b602082019050919050565b600061103c601a83611242565b91506110478261153b565b602082019050919050565b600061105f600083611237565b915061106a82611564565b600082019050919050565b61107e816112d3565b82525050565b600061108f82611052565b9150819050919050565b60006020820190506110ae6000830184610f30565b92915050565b60006040820190506110c96000830185610f30565b6110d66020830184611075565b9392505050565b60006020820190506110f26000830184610f3f565b92915050565b600060408201905061110d6000830185610f3f565b61111a6020830184611075565b9392505050565b60006020820190506111366000830184610f4e565b92915050565b6000602082019050818103600083015261115581610f5d565b9050919050565b6000602082019050818103600083015261117581610f80565b9050919050565b6000602082019050818103600083015261119581610fa3565b9050919050565b600060208201905081810360008301526111b581610fc6565b9050919050565b600060208201905081810360008301526111d581610fe9565b9050919050565b600060208201905081810360008301526111f58161100c565b9050919050565b600060208201905081810360008301526112158161102f565b9050919050565b60006020820190506112316000830184611075565b92915050565b600081905092915050565b600082825260208201905092915050565b600061125e826112d3565b9150611269836112d3565b92508261127957611278611367565b5b828204905092915050565b600061128f826112b3565b9050919050565b6000819050919050565b60008190506112ae82611567565b919050565b600073ffffffffffffffffffffffffffffffffffffffff82169050919050565b6000819050919050565b60006112e8826112a0565b9050919050565b60006112fa826112d3565b91507fffffffffffffffffffffffffffffffffffffffffffffffffffffffffffffffff82141561132d5761132c611338565b5b600182019050919050565b7f4e487b7100000000000000000000000000000000000000000000000000000000600052601160045260246000fd5b7f4e487b7100000000000000000000000000000000000000000000000000000000600052601260045260246000fd5b7f4e487b7100000000000000000000000000000000000000000000000000000000600052602160045260246000fd5b7f4e487b7100000000000000000000000000000000000000000000000000000000600052603260045260246000fd5b600080fd5b7f5472616e73666572206f66204f776e657220637574206661696c656400000000600082015250565b7f43616e6e6f74207375626d6974207468652073616d65206e756d626572206d6f60008201527f7265207468616e206f6e63650000000000000000000000000000000000000000602082015250565b7f4f776e61626c653a206e6577206f776e657220697320746865207a65726f206160008201527f6464726573730000000000000000000000000000000000000000000000000000602082015250565b7f4d75737420626520636f72726563742067656e65726174657200000000000000600082015250565b7f57726f6e6720737461746520666f72207468697320616374696f6e0000000000600082015250565b7f4f776e61626c653a2063616c6c6572206973206e6f7420746865206f776e6572600082015250565b7f4d696e696d756d20656e74727920666565207265717569726564000000000000600082015250565b50565b6003811061157857611577611396565b5b50565b61158481611284565b811461158f57600080fd5b50565b61159b81611296565b81146115a657600080fd5b50565b6115b2816112d3565b81146115bd57600080fd5b5056fea26469706673582212208221e4efd4f673626d15075136d26bf1b550cf2b250fdfb517799bdb1950078264736f6c63430008060033",
  "linkReferences": {},
  "deployedLinkReferences": {}
}